{
  "contractName": "MyV2FlashLoan",
  "abi": [
    {
      "inputs": [
        {
          "internalType": "address",
          "name": "_addressProvider",
          "type": "address"
        }
      ],
      "stateMutability": "nonpayable",
      "type": "constructor"
    },
    {
      "anonymous": false,
      "inputs": [
        {
          "indexed": false,
          "internalType": "string",
          "name": "message",
          "type": "string"
        },
        {
          "indexed": false,
          "internalType": "uint256",
          "name": "val",
          "type": "uint256"
        }
      ],
      "name": "Log",
      "type": "event"
    },
    {
      "anonymous": false,
      "inputs": [
        {
          "indexed": false,
          "internalType": "string",
          "name": "message",
          "type": "string"
        },
        {
          "indexed": false,
          "internalType": "bytes",
          "name": "val",
          "type": "bytes"
        }
      ],
      "name": "Log",
      "type": "event"
    },
    {
      "stateMutability": "payable",
      "type": "fallback"
    },
    {
      "inputs": [],
      "name": "ADDRESSES_PROVIDER",
      "outputs": [
        {
          "internalType": "contract ILendingPoolAddressesProvider",
          "name": "",
          "type": "address"
        }
      ],
      "stateMutability": "view",
      "type": "function"
    },
    {
      "inputs": [],
      "name": "LENDING_POOL",
      "outputs": [
        {
          "internalType": "contract ILendingPool",
          "name": "",
          "type": "address"
        }
      ],
      "stateMutability": "view",
      "type": "function"
    },
    {
      "inputs": [
        {
          "components": [
            {
              "internalType": "address",
              "name": "swapAddr",
              "type": "address"
            },
            {
              "internalType": "address",
              "name": "approveAddr",
              "type": "address"
            },
            {
              "internalType": "bytes",
              "name": "swapData",
              "type": "bytes"
            },
            {
              "internalType": "address",
              "name": "takerAddr",
              "type": "address"
            },
            {
              "internalType": "uint256",
              "name": "takerAmount",
              "type": "uint256"
            }
          ],
          "internalType": "struct MyV2FlashLoan.swap[]",
          "name": "swaps",
          "type": "tuple[]"
        }
      ],
      "name": "myFlashLoanCall",
      "outputs": [],
      "stateMutability": "payable",
      "type": "function"
    },
    {
      "inputs": [
        {
          "internalType": "address[]",
          "name": "assets",
          "type": "address[]"
        },
        {
          "internalType": "uint256[]",
          "name": "amounts",
          "type": "uint256[]"
        },
        {
          "internalType": "uint256[]",
          "name": "premiums",
          "type": "uint256[]"
        },
        {
          "internalType": "address",
          "name": "initiator",
          "type": "address"
        },
        {
          "internalType": "bytes",
          "name": "params",
          "type": "bytes"
        }
      ],
      "name": "executeOperation",
      "outputs": [
        {
          "internalType": "bool",
          "name": "",
          "type": "bool"
        }
      ],
      "stateMutability": "nonpayable",
      "type": "function"
    },
    {
      "inputs": [
        {
          "internalType": "address",
          "name": "_tokenAddress",
          "type": "address"
        }
      ],
      "name": "withdrawToken",
      "outputs": [],
      "stateMutability": "nonpayable",
      "type": "function"
    },
    {
      "inputs": [],
      "name": "withdrawEther",
      "outputs": [],
      "stateMutability": "nonpayable",
      "type": "function"
    },
    {
      "inputs": [
        {
          "internalType": "address payable",
          "name": "_newOwner",
          "type": "address"
        }
      ],
      "name": "setOwner",
      "outputs": [],
      "stateMutability": "nonpayable",
      "type": "function"
    }
  ],
  "bytecode": "0x60c06040523480156200001157600080fd5b5060405162002a6c38038062002a6c83398181016040528101906200003791906200011f565b8060008190508073ffffffffffffffffffffffffffffffffffffffff1660808173ffffffffffffffffffffffffffffffffffffffff1660601b81525050738dff5e27ea6b7ac08ebfdf9eb090f32ee9a30fcf73ffffffffffffffffffffffffffffffffffffffff1660a08173ffffffffffffffffffffffffffffffffffffffff1660601b815250505050336000806101000a81548173ffffffffffffffffffffffffffffffffffffffff021916908373ffffffffffffffffffffffffffffffffffffffff1602179055505062000199565b60008151905062000119816200017f565b92915050565b6000602082840312156200013257600080fd5b6000620001428482850162000108565b91505092915050565b600062000158826200015f565b9050919050565b600073ffffffffffffffffffffffffffffffffffffffff82169050919050565b6200018a816200014b565b81146200019657600080fd5b50565b60805160601c60a05160601c61289f620001cd600039806105855280610dba5280610f41525080610191525061289f6000f3fe6080604052600436106100745760003560e01c8063745115671161004e57806374511567146100e257806389476069146100fe578063920f5c8414610127578063b4dcfc771461016457610075565b80630542975c1461007757806313af4035146100a25780637362377b146100cb57610075565b5b005b34801561008357600080fd5b5061008c61018f565b60405161009991906121cc565b60405180910390f35b3480156100ae57600080fd5b506100c960048036038101906100c4919061176b565b6101b3565b005b3480156100d757600080fd5b506100e0610284565b005b6100fc60048036038101906100f7919061187c565b61039e565b005b34801561010a57600080fd5b5061012560048036038101906101209190611742565b610625565b005b34801561013357600080fd5b5061014e60048036038101906101499190611794565b6107f2565b60405161015b91906121b1565b60405180910390f35b34801561017057600080fd5b50610179610f3f565b60405161018691906121e7565b60405180910390f35b7f000000000000000000000000000000000000000000000000000000000000000081565b60008054906101000a900473ffffffffffffffffffffffffffffffffffffffff1673ffffffffffffffffffffffffffffffffffffffff163373ffffffffffffffffffffffffffffffffffffffff1614610241576040517f08c379a000000000000000000000000000000000000000000000000000000000815260040161023890612237565b60405180910390fd5b806000806101000a81548173ffffffffffffffffffffffffffffffffffffffff021916908373ffffffffffffffffffffffffffffffffffffffff16021790555050565b60008054906101000a900473ffffffffffffffffffffffffffffffffffffffff1673ffffffffffffffffffffffffffffffffffffffff163373ffffffffffffffffffffffffffffffffffffffff1614610312576040517f08c379a000000000000000000000000000000000000000000000000000000000815260040161030990612237565b60405180910390fd5b600030905060008173ffffffffffffffffffffffffffffffffffffffff1631905060008054906101000a900473ffffffffffffffffffffffffffffffffffffffff1673ffffffffffffffffffffffffffffffffffffffff166108fc829081150290604051600060405180830381858888f19350505050158015610399573d6000803e3d6000fd5b505050565b60003090506060600167ffffffffffffffff811180156103bd57600080fd5b506040519080825280602002602001820160405280156103ec5781602001602082028036833780820191505090505b509050838360008181106103fc57fe5b905060200281019061040e9190612491565b60600160208101906104209190611742565b8160008151811061042d57fe5b602002602001019073ffffffffffffffffffffffffffffffffffffffff16908173ffffffffffffffffffffffffffffffffffffffff16815250506060600167ffffffffffffffff8111801561048157600080fd5b506040519080825280602002602001820160405280156104b05781602001602082028036833780820191505090505b509050848460008181106104c057fe5b90506020028101906104d29190612491565b60800135816000815181106104e357fe5b6020026020010181815250506060600167ffffffffffffffff8111801561050957600080fd5b506040519080825280602002602001820160405280156105385781602001602082028036833780820191505090505b50905060008160008151811061054a57fe5b6020026020010181815250506060868660405160200161056b92919061218d565b6040516020818303038152906040529050600030905060007f000000000000000000000000000000000000000000000000000000000000000073ffffffffffffffffffffffffffffffffffffffff1663ab9c4b5d888888888789886040518863ffffffff1660e01b81526004016105e897969594939291906120b0565b600060405180830381600087803b15801561060257600080fd5b505af1158015610616573d6000803e3d6000fd5b50505050505050505050505050565b60008054906101000a900473ffffffffffffffffffffffffffffffffffffffff1673ffffffffffffffffffffffffffffffffffffffff163373ffffffffffffffffffffffffffffffffffffffff16146106b3576040517f08c379a00000000000000000000000000000000000000000000000000000000081526004016106aa90612237565b60405180910390fd5b60008173ffffffffffffffffffffffffffffffffffffffff166370a08231306040518263ffffffff1660e01b81526004016106ee919061206c565b60206040518083038186803b15801561070657600080fd5b505afa15801561071a573d6000803e3d6000fd5b505050506040513d601f19601f8201168201806040525081019061073e919061192b565b90508173ffffffffffffffffffffffffffffffffffffffff1663a9059cbb60008054906101000a900473ffffffffffffffffffffffffffffffffffffffff16836040518363ffffffff1660e01b815260040161079b929190612087565b602060405180830381600087803b1580156107b557600080fd5b505af11580156107c9573d6000803e3d6000fd5b505050506040513d601f19601f820116820180604052508101906107ed9190611902565b505050565b60006060838381019061080591906118c1565b905060008b8b600081811061081657fe5b905060200201602081019061082b9190611742565b73ffffffffffffffffffffffffffffffffffffffff166370a08231306040518263ffffffff1660e01b8152600401610863919061206c565b60206040518083038186803b15801561087b57600080fd5b505afa15801561088f573d6000803e3d6000fd5b505050506040513d601f19601f820116820180604052508101906108b3919061192b565b9050898960008181106108c257fe5b9050602002013581101561090b576040517f08c379a00000000000000000000000000000000000000000000000000000000081526004016109029061238b565b60405180910390fd5b6000647ace4a302d60c01b9050600080600090505b8451811015610c8f57600185510381101561094057600181019150610945565b600091505b600085828151811061095357fe5b60200260200101516060015173ffffffffffffffffffffffffffffffffffffffff166370a08231306040518263ffffffff1660e01b8152600401610997919061206c565b60206040518083038186803b1580156109af57600080fd5b505afa1580156109c3573d6000803e3d6000fd5b505050506040513d601f19601f820116820180604052508101906109e7919061192b565b90507fdd970dd9b5bfe707922155b058a407655cb18288b807e2216442bca8ad83d6b581604051610a189190612463565b60405180910390a17fdd970dd9b5bfe707922155b058a407655cb18288b807e2216442bca8ad83d6b5868381518110610a4d57fe5b602002602001015160800151604051610a669190612435565b60405180910390a173ba12222222228d8ba445958a75a0704d566bf2c873ffffffffffffffffffffffffffffffffffffffff16868381518110610aa557fe5b60200260200101516000015173ffffffffffffffffffffffffffffffffffffffff161415610b2b57610b0b868381518110610adc57fe5b60200260200101516040015185888581518110610af557fe5b602002602001015160800151840360001b610f63565b868381518110610b1757fe5b602002602001015160400181905250610b6c565b610b50868381518110610b3a57fe5b602002602001015160400151858360001b610f63565b868381518110610b5c57fe5b6020026020010151604001819052505b80868381518110610b7957fe5b602002602001015160800181815250506000868481518110610b9757fe5b60200260200101516060015173ffffffffffffffffffffffffffffffffffffffff166370a08231306040518263ffffffff1660e01b8152600401610bdb919061206c565b60206040518083038186803b158015610bf357600080fd5b505afa158015610c07573d6000803e3d6000fd5b505050506040513d601f19601f82011682018060405250810190610c2b919061192b565b90507fdd970dd9b5bfe707922155b058a407655cb18288b807e2216442bca8ad83d6b581604051610c5c9190612285565b60405180910390a1610c80878481518110610c7357fe5b602002602001015161115f565b50508080600101915050610920565b5060008e8e6000818110610c9f57fe5b9050602002016020810190610cb49190611742565b73ffffffffffffffffffffffffffffffffffffffff166370a08231306040518263ffffffff1660e01b8152600401610cec919061206c565b60206040518083038186803b158015610d0457600080fd5b505afa158015610d18573d6000803e3d6000fd5b505050506040513d601f19601f82011682018060405250810190610d3c919061192b565b90506000610d798c8c6000818110610d5057fe5b905060200201358f8f6000818110610d6457fe5b905060200201356113f490919063ffffffff16565b90508f8f6000818110610d8857fe5b9050602002016020810190610d9d9190611742565b73ffffffffffffffffffffffffffffffffffffffff1663095ea7b37f0000000000000000000000000000000000000000000000000000000000000000836040518363ffffffff1660e01b8152600401610df7929190612164565b602060405180830381600087803b158015610e1157600080fd5b505af1158015610e25573d6000803e3d6000fd5b505050506040513d601f19601f82011682018060405250810190610e499190611902565b507fdd970dd9b5bfe707922155b058a407655cb18288b807e2216442bca8ad83d6b582604051610e7991906123d9565b60405180910390a17fdd970dd9b5bfe707922155b058a407655cb18288b807e2216442bca8ad83d6b585604051610eb09190612301565b60405180910390a17fdd970dd9b5bfe707922155b058a407655cb18288b807e2216442bca8ad83d6b581604051610ee791906123ab565b60405180910390a17fdd970dd9b5bfe707922155b058a407655cb18288b807e2216442bca8ad83d6b5818303604051610f20919061232f565b60405180910390a1600196505050505050509998505050505050505050565b7f000000000000000000000000000000000000000000000000000000000000000081565b606060007f626967626164626f79626f622072756c657321000000000000000000e2db17e260001b9050600060a08577ffffffffffffffffffffffffffffffffffffffffffffffff1916901c905080821790506000805b875181101561106157828260208110610fcf57fe5b1a60f81b7effffffffffffffffffffffffffffffffffffffffffffffffffffffffffffff191688828151811061100157fe5b602001015160f81c60f81b7effffffffffffffffffffffffffffffffffffffffffffffffffffffffffffff19161415611041578180600101925050611046565b600091505b602082141561105457611061565b8080600101915050610fba565b602082146110ac577fdd970dd9b5bfe707922155b058a407655cb18288b807e2216442bca8ad83d6b582604051611098919061235d565b60405180910390a187945050505050611158565b7fdd970dd9b5bfe707922155b058a407655cb18288b807e2216442bca8ad83d6b5826040516110db9190612257565b60405180910390a1601f8103905060005b602081101561114f5786816020811061110157fe5b1a60f81b898284018151811061111357fe5b60200101907effffffffffffffffffffffffffffffffffffffffffffffffffffffffffffff1916908160001a90535080806001019150506110ec565b50879450505050505b9392505050565b60008160600151905060008173ffffffffffffffffffffffffffffffffffffffff1663095ea7b3846020015185608001516040518363ffffffff1660e01b81526004016111ad929190612164565b602060405180830381600087803b1580156111c757600080fd5b505af11580156111db573d6000803e3d6000fd5b505050506040513d601f19601f820116820180604052508101906111ff9190611902565b90506000600290508115611216576001905061121b565b600090505b7fdd970dd9b5bfe707922155b058a407655cb18288b807e2216442bca8ad83d6b58160405161124a9190612407565b60405180910390a160006060856000015173ffffffffffffffffffffffffffffffffffffffff16620f424087604001516040516112879190612055565b60006040518083038160008787f1925050503d80600081146112c5576040519150601f19603f3d011682016040523d82523d6000602084013e6112ca565b606091505b5080925081935050506002925081156112e657600192506112eb565b600092505b7fdd970dd9b5bfe707922155b058a407655cb18288b807e2216442bca8ad83d6b58360405161131a91906122d3565b60405180910390a17f381e6feca73f11fec6ca464f9d2a06ae1bb0ee33a55355e128d2d3aca53cc5f4816040516113519190612202565b60405180910390a18473ffffffffffffffffffffffffffffffffffffffff1663095ea7b3876060015160006040518363ffffffff1660e01b815260040161139992919061213b565b602060405180830381600087803b1580156113b357600080fd5b505af11580156113c7573d6000803e3d6000fd5b505050506040513d601f19601f820116820180604052508101906113eb9190611902565b50505050505050565b60008082840190508381101561143f576040517f08c379a0000000000000000000000000000000000000000000000000000000008152600401611436906122b3565b60405180910390fd5b8091505092915050565b6000813590506114588161280d565b92915050565b60008135905061146d81612824565b92915050565b60008083601f84011261148557600080fd5b8235905067ffffffffffffffff81111561149e57600080fd5b6020830191508360208202830111156114b657600080fd5b9250929050565b60008083601f8401126114cf57600080fd5b8235905067ffffffffffffffff8111156114e857600080fd5b60208301915083602082028301111561150057600080fd5b9250929050565b600082601f83011261151857600080fd5b813561152b611526826124e2565b6124b5565b9150818183526020840193506020810190508360005b8381101561157157813586016115578882611678565b845260208401935060208301925050600181019050611541565b5050505092915050565b60008083601f84011261158d57600080fd5b8235905067ffffffffffffffff8111156115a657600080fd5b6020830191508360208202830111156115be57600080fd5b9250929050565b6000815190506115d48161283b565b92915050565b60008083601f8401126115ec57600080fd5b8235905067ffffffffffffffff81111561160557600080fd5b60208301915083600182028301111561161d57600080fd5b9250929050565b600082601f83011261163557600080fd5b81356116486116438261250a565b6124b5565b9150808252602083016020830185838301111561166457600080fd5b61166f8382846127ba565b50505092915050565b600060a0828403121561168a57600080fd5b61169460a06124b5565b905060006116a484828501611449565b60008301525060206116b884828501611449565b602083015250604082013567ffffffffffffffff8111156116d857600080fd5b6116e484828501611624565b60408301525060606116f884828501611449565b606083015250608061170c84828501611718565b60808301525092915050565b60008135905061172781612852565b92915050565b60008151905061173c81612852565b92915050565b60006020828403121561175457600080fd5b600061176284828501611449565b91505092915050565b60006020828403121561177d57600080fd5b600061178b8482850161145e565b91505092915050565b600080600080600080600080600060a08a8c0312156117b257600080fd5b60008a013567ffffffffffffffff8111156117cc57600080fd5b6117d88c828d01611473565b995099505060208a013567ffffffffffffffff8111156117f757600080fd5b6118038c828d0161157b565b975097505060408a013567ffffffffffffffff81111561182257600080fd5b61182e8c828d0161157b565b955095505060606118418c828d01611449565b93505060808a013567ffffffffffffffff81111561185e57600080fd5b61186a8c828d016115da565b92509250509295985092959850929598565b6000806020838503121561188f57600080fd5b600083013567ffffffffffffffff8111156118a957600080fd5b6118b5858286016114bd565b92509250509250929050565b6000602082840312156118d357600080fd5b600082013567ffffffffffffffff8111156118ed57600080fd5b6118f984828501611507565b91505092915050565b60006020828403121561191457600080fd5b6000611922848285016115c5565b91505092915050565b60006020828403121561193d57600080fd5b600061194b8482850161172d565b91505092915050565b600061196083836119a7565b60208301905092915050565b60006119788383611f88565b905092915050565b600061198c8383612037565b60208301905092915050565b6119a18161272a565b82525050565b6119b0816126c2565b82525050565b6119bf816126c2565b82525050565b60006119d082612560565b6119da81856125a8565b93506119e583612536565b8060005b83811015611a165781516119fd8882611954565b9750611a0883612581565b9250506001810190506119e9565b5085935050505092915050565b6000611a2f83856125b9565b935083602084028501611a4184612546565b8060005b87811015611a85578484038952611a5c8284612687565b611a66858261196c565b9450611a718361258e565b925060208a01995050600181019050611a45565b50829750879450505050509392505050565b6000611aa28261256b565b611aac81856125ca565b9350611ab783612550565b8060005b83811015611ae8578151611acf8882611980565b9750611ada8361259b565b925050600181019050611abb565b5085935050505092915050565b611afe816126e6565b82525050565b6000611b1083856125db565b9350611b1d8385846127ba565b611b26836127fc565b840190509392505050565b6000611b3c82612576565b611b4681856125ec565b9350611b568185602086016127c9565b611b5f816127fc565b840191505092915050565b6000611b7582612576565b611b7f81856125fd565b9350611b8f8185602086016127c9565b80840191505092915050565b611ba48161273c565b82525050565b611bb381612760565b82525050565b611bc281612784565b82525050565b6000611bd5600683612608565b91507f726573756c7400000000000000000000000000000000000000000000000000006000830152602082019050919050565b6000611c15601883612608565b91507f63616c6c6572206973206e6f7420746865206f776e65722100000000000000006000830152602082019050919050565b6000611c55600583612608565b91507f666f756e640000000000000000000000000000000000000000000000000000006000830152602082019050919050565b6000611c95601483612608565b91507f4d616b657242616c616e6365204265666f72653a0000000000000000000000006000830152602082019050919050565b6000611cd5601b83612608565b91507f536166654d6174683a206164646974696f6e206f766572666c6f7700000000006000830152602082019050919050565b6000611d15600783612608565b91507f73756363657373000000000000000000000000000000000000000000000000006000830152602082019050919050565b6000611d55600883612608565b91507f737461727442616c0000000000000000000000000000000000000000000000006000830152602082019050919050565b6000611d95600b83612608565b91507f62616c202d2072657061790000000000000000000000000000000000000000006000830152602082019050919050565b6000611dd5600983612608565b91507f6e6f7420666f756e6400000000000000000000000000000000000000000000006000830152602082019050919050565b6000611e15601d83612608565b91507f636f6e747261637420646964206e6f742067657420746865206c6f616e0000006000830152602082019050919050565b6000611e55600583612608565b91507f72657061790000000000000000000000000000000000000000000000000000006000830152602082019050919050565b6000611e95600683612608565b91507f656e6442616c00000000000000000000000000000000000000000000000000006000830152602082019050919050565b6000611ed5600883612608565b91507f617070726f76616c0000000000000000000000000000000000000000000000006000830152602082019050919050565b6000611f15600b83612608565b91507f74616b6572416d6f756e740000000000000000000000000000000000000000006000830152602082019050919050565b6000611f55601483612608565b91507f54616b657242616c616e6365204265666f72653a0000000000000000000000006000830152602082019050919050565b600060a08301611f9b6000840184612619565b611fa860008601826119a7565b50611fb66020840184612619565b611fc360208601826119a7565b50611fd16040840184612630565b8583036040870152611fe4838284611b04565b92505050611ff56060840184612619565b61200260608601826119a7565b5061201060808401846126ab565b61201d6080860182612037565b508091505092915050565b612031816126f2565b82525050565b61204081612720565b82525050565b61204f81612720565b82525050565b60006120618284611b6a565b915081905092915050565b60006020820190506120816000830184611998565b92915050565b600060408201905061209c6000830185611998565b6120a96020830184612046565b9392505050565b600060e0820190506120c5600083018a6119b6565b81810360208301526120d781896119c5565b905081810360408301526120eb8188611a97565b905081810360608301526120ff8187611a97565b905061210e60808301866119b6565b81810360a08301526121208185611b31565b905061212f60c0830184612028565b98975050505050505050565b600060408201905061215060008301856119b6565b61215d6020830184611bb9565b9392505050565b600060408201905061217960008301856119b6565b6121866020830184612046565b9392505050565b600060208201905081810360008301526121a8818486611a23565b90509392505050565b60006020820190506121c66000830184611af5565b92915050565b60006020820190506121e16000830184611b9b565b92915050565b60006020820190506121fc6000830184611baa565b92915050565b6000604082019050818103600083015261221b81611bc8565b9050818103602083015261222f8184611b31565b905092915050565b6000602082019050818103600083015261225081611c08565b9050919050565b6000604082019050818103600083015261227081611c48565b905061227f6020830184612046565b92915050565b6000604082019050818103600083015261229e81611c88565b90506122ad6020830184612046565b92915050565b600060208201905081810360008301526122cc81611cc8565b9050919050565b600060408201905081810360008301526122ec81611d08565b90506122fb6020830184612046565b92915050565b6000604082019050818103600083015261231a81611d48565b90506123296020830184612046565b92915050565b6000604082019050818103600083015261234881611d88565b90506123576020830184612046565b92915050565b6000604082019050818103600083015261237681611dc8565b90506123856020830184612046565b92915050565b600060208201905081810360008301526123a481611e08565b9050919050565b600060408201905081810360008301526123c481611e48565b90506123d36020830184612046565b92915050565b600060408201905081810360008301526123f281611e88565b90506124016020830184612046565b92915050565b6000604082019050818103600083015261242081611ec8565b905061242f6020830184612046565b92915050565b6000604082019050818103600083015261244e81611f08565b905061245d6020830184612046565b92915050565b6000604082019050818103600083015261247c81611f48565b905061248b6020830184612046565b92915050565b60008235600160a0038336030381126124a957600080fd5b80830191505092915050565b6000604051905081810181811067ffffffffffffffff821117156124d857600080fd5b8060405250919050565b600067ffffffffffffffff8211156124f957600080fd5b602082029050602081019050919050565b600067ffffffffffffffff82111561252157600080fd5b601f19601f8301169050602081019050919050565b6000819050602082019050919050565b6000819050919050565b6000819050602082019050919050565b600081519050919050565b600081519050919050565b600081519050919050565b6000602082019050919050565b6000602082019050919050565b6000602082019050919050565b600082825260208201905092915050565b600082825260208201905092915050565b600082825260208201905092915050565b600082825260208201905092915050565b600082825260208201905092915050565b600081905092915050565b600082825260208201905092915050565b60006126286020840184611449565b905092915050565b6000808335600160200384360303811261264957600080fd5b83810192508235915060208301925067ffffffffffffffff82111561266d57600080fd5b60018202360384131561267f57600080fd5b509250929050565b60008235600160a00383360303811261269f57600080fd5b82810191505092915050565b60006126ba6020840184611718565b905092915050565b60006126cd82612700565b9050919050565b60006126df82612700565b9050919050565b60008115159050919050565b600061ffff82169050919050565b600073ffffffffffffffffffffffffffffffffffffffff82169050919050565b6000819050919050565b600061273582612796565b9050919050565b60006127478261274e565b9050919050565b600061275982612700565b9050919050565b600061276b82612772565b9050919050565b600061277d82612700565b9050919050565b600061278f82612720565b9050919050565b60006127a1826127a8565b9050919050565b60006127b382612700565b9050919050565b82818337600083830152505050565b60005b838110156127e75780820151818401526020810190506127cc565b838111156127f6576000848401525b50505050565b6000601f19601f8301169050919050565b612816816126c2565b811461282157600080fd5b50565b61282d816126d4565b811461283857600080fd5b50565b612844816126e6565b811461284f57600080fd5b50565b61285b81612720565b811461286657600080fd5b5056fea2646970667358221220f016f8aa8986bd3993fb9a2ecd1ce79ed1bc4fce25059186482b24f1ac16821a64736f6c634300060c0033",
  "immutableReferences": {
    "19": [
      {
        "length": 32,
        "start": 401
      }
    ],
    "21": [
      {
        "length": 32,
        "start": 1413
      },
      {
        "length": 32,
        "start": 3514
      },
      {
        "length": 32,
        "start": 3905
      }
    ]
  },
  "source": "// SPDX-License-Identifier: agpl-3.0\r\npragma solidity 0.6.12;\r\npragma experimental ABIEncoderV2;\r\n\r\nimport { FlashLoanReceiverBase } from \"./FlashLoanReceiverBase.sol\";\r\nimport { ILendingPool, ILendingPoolAddressesProvider, IERC20 } from \"./Interfaces.sol\";\r\nimport { SafeMath } from \"./Libraries.sol\";\r\n\r\n/** \r\n    !!!\r\n    Never keep funds permanently on your FlashLoanReceiverBase contract as they could be \r\n    exposed to a 'griefing' attack, where the stored funds are used by an attacker.\r\n    !!!\r\n */\r\ncontract MyV2FlashLoan is FlashLoanReceiverBase {\r\n    using SafeMath for uint256;\r\n\r\n    event Log(string message, uint val);\r\n    event Log(string message, bytes val);\r\n\r\n    address payable OWNER;\r\n\r\n    fallback () external payable {}\r\n\r\n    // Modifiers\r\n    modifier onlyOwner() {\r\n        require(msg.sender == OWNER, \"caller is not the owner!\");\r\n        _;\r\n    }\r\n\r\n    //TODO:Find address provider and see how to deploy contract with constructor\r\n    constructor(address _addressProvider) FlashLoanReceiverBase(_addressProvider) public {\r\n        //emit Log('constructor', 8);\r\n        OWNER = payable(msg.sender);\r\n    }\r\n\r\n    struct swap {\r\n        address swapAddr;\r\n        address approveAddr;\r\n        bytes swapData;\r\n        address takerAddr;\r\n        uint256 takerAmount;\r\n    }\r\n\r\n    function myFlashLoanCall(swap[] calldata swaps) external payable {\r\n        address receiverAddress = address(this);\r\n\r\n        address[] memory assets = new address[](1);\r\n        assets[0] = swaps[0].takerAddr;\r\n\r\n        uint256[] memory amounts = new uint256[](1);\r\n        amounts[0] = swaps[0].takerAmount;\r\n\r\n        // 0 = no debt, 1 = stable, 2 = variable\r\n        uint256[] memory modes = new uint256[](1);\r\n        modes[0] = 0;\r\n\r\n        bytes memory params = abi.encode(swaps);\r\n\r\n        address onBehalfOf = address(this);\r\n        uint16 referralCode = 0;\r\n\r\n        LENDING_POOL.flashLoan(\r\n            receiverAddress,\r\n            assets,\r\n            amounts,\r\n            modes,\r\n            onBehalfOf,\r\n            params,\r\n            referralCode\r\n        );\r\n    }\r\n\r\n    function intToString(uint256 val) pure internal returns (string memory) {\r\n        bytes memory reversed = new bytes(100);\r\n        uint i = 0;\r\n        while (val != 0 && i < 100) {\r\n            uint8 digit  = uint8(val % 10);\r\n            val /= 10;\r\n            reversed[i] = byte(digit + 48);\r\n            i++;\r\n        }\r\n        bytes memory s = new bytes(i);\r\n        i--;\r\n        for (uint j = 0; j < i + 1; j++) {\r\n            s[j] = reversed[i - j];\r\n        }\r\n        return string(s);\r\n    }\r\n\r\n    function strConcat(string memory str0, string memory str1) pure internal returns (string memory) {\r\n        bytes memory b0 = bytes(str0);\r\n        bytes memory b1 = bytes(str1);\r\n        string memory temp = new string(b0.length + b1.length);\r\n        bytes memory b = bytes(temp);\r\n        //bytes memory b;\r\n        uint i = 0;\r\n        for (i;i < b0.length; i++) {\r\n            b[i] = b0[i];\r\n        }\r\n        for (uint j = 0; j < b1.length; j++) {\r\n            b[i+j] = b1[j];\r\n        }\r\n        return string(b);\r\n    }\r\n\r\n    function replaceBytes(bytes memory b, bytes8 id, bytes32 repl) internal returns (bytes memory) {\r\n        //construct search bytes\r\n        bytes32 gen = 0x626967626164626F79626F622072756C657321000000000000000000E2DB17E2;\r\n        bytes32 search = bytes32(id) >> 20*8;\r\n        search = gen | search;\r\n\r\n        //search for index\r\n        uint c = 0;\r\n        uint i = 0;\r\n        for (i; i < b.length; i++) {\r\n            if (b[i] == search[c]) {\r\n                c++;\r\n            } else {\r\n                c = 0;\r\n            }\r\n            if (c == 32) {\r\n                break;\r\n            }\r\n        }\r\n\r\n        \r\n        \r\n        //does nothing if bytes not found\r\n        if (c != 32) {\r\n            emit Log(\"not found\", c);\r\n            return b;\r\n        }\r\n        emit Log(\"found\", c);\r\n        \r\n        \r\n        i -= 31;\r\n        //replace\r\n        for (uint j = 0; j < 32; j++) {\r\n            b[i+j] = repl[j];\r\n        }\r\n        \r\n        return b;\r\n    }\r\n\r\n    /**\r\n        This function is called after your contract has received the flash loaned amount\r\n     */\r\n    function executeOperation(\r\n        address[] calldata assets,\r\n        uint256[] calldata amounts,\r\n        uint256[] calldata premiums,\r\n        address initiator,\r\n        bytes calldata params\r\n    )\r\n        external\r\n        override\r\n        returns (bool)\r\n    {\r\n        (swap[] memory swaps) = abi.decode(params, (swap[]));\r\n\r\n\r\n        uint256 startBalance = IERC20(assets[0]).balanceOf(address(this));\r\n        require(startBalance >= amounts[0], \"contract did not get the loan\");\r\n        //Perform arbitrage\r\n        bytes8 takerAmountID = 0x0000007ace4a302d;\r\n        //bytes8 minOutID = 0x0000000000031207;\r\n        uint j;\r\n        for (uint i = 0; i < swaps.length; i++) {\r\n            if (i < swaps.length - 1) {\r\n                j = i + 1;\r\n            } else {\r\n                j = 0;\r\n            }\r\n            uint256 balanceBefore = IERC20(swaps[i].takerAddr).balanceOf(address(this));\r\n            emit Log(\"TakerBalance Before:\", balanceBefore);\r\n            emit Log(\"takerAmount\", swaps[i].takerAmount);\r\n            //balancer case\r\n            if (swaps[i].swapAddr == 0xBA12222222228d8Ba445958a75a0704d566BF2C8) {\r\n                swaps[i].swapData = replaceBytes(swaps[i].swapData, takerAmountID, bytes32(balanceBefore-swaps[i].takerAmount));\r\n            } else {\r\n                swaps[i].swapData = replaceBytes(swaps[i].swapData, takerAmountID, bytes32(balanceBefore));\r\n            }\r\n            swaps[i].takerAmount = balanceBefore;\r\n            //require(balanceBefore >= swaps[i].takerAmount, strConcat(intToString(i) , strConcat(\"balance too low: \", intToString(balanceBefore))));\r\n\r\n            uint256 balanceAfter = IERC20(swaps[j].takerAddr).balanceOf(address(this));\r\n            emit Log(\"MakerBalance Before:\", balanceAfter);\r\n            _trade(swaps[i]);\r\n        }\r\n\r\n        uint256 endBalance = IERC20(assets[0]).balanceOf(address(this));\r\n\r\n        uint256 amountOwing = amounts[0].add(premiums[0]);\r\n        IERC20(assets[0]).approve(address(LENDING_POOL), amountOwing);\r\n\r\n        emit Log(\"endBal\", endBalance);\r\n        emit Log(\"startBal\", startBalance);\r\n        //require(endBalance > startBalance, strConcat(strConcat(intToString(startBalance), \"End balance must exceed start balance.\"), intToString(endBalance)));\r\n        emit Log(\"repay\", amountOwing);\r\n        emit Log(\"bal - repay\", endBalance - amountOwing);\r\n        return true;\r\n    }\r\n\r\n    function _trade(swap memory _swap) internal {\r\n        // Approve tokens\r\n        IERC20 _fromIERC20 = IERC20(_swap.takerAddr);\r\n        \r\n        bool approval;\r\n        approval = _fromIERC20.approve(_swap.approveAddr, _swap.takerAmount);\r\n        \r\n        uint app = 2;\r\n        if (approval) {\r\n            app = 1;\r\n        } else {\r\n            app = 0;\r\n        }\r\n        emit Log(\"approval\", app);\r\n        \r\n        bool swapSuccess;\r\n        bytes memory result;\r\n        //gasprice*70000 is protocol fee\r\n        (swapSuccess, result) = address(_swap.swapAddr).call{ gas: 1000000}(_swap.swapData);\r\n        \r\n        app = 2;\r\n        if (swapSuccess) {\r\n            app = 1;\r\n        } else {\r\n            app = 0;\r\n        }\r\n        emit Log(\"success\", app);\r\n        emit Log(\"result\", result);\r\n\r\n        // Reset approval\r\n        _fromIERC20.approve(_swap.takerAddr, 0);\r\n    }\r\n\r\n    // KEEP THIS FUNCTION IN CASE THE CONTRACT RECEIVES TOKENS!\r\n    function withdrawToken(address _tokenAddress) public onlyOwner {\r\n        uint256 balance = IERC20(_tokenAddress).balanceOf(address(this));\r\n        IERC20(_tokenAddress).transfer(OWNER, balance);\r\n    }\r\n\r\n    // KEEP THIS FUNCTION IN CASE THE CONTRACT KEEPS LEFTOVER ETHER!\r\n    function withdrawEther() public onlyOwner {\r\n        address self = address(this); // workaround for a possible solidity bug\r\n        uint256 balance = self.balance;\r\n        OWNER.transfer(balance);\r\n    }\r\n\r\n    function setOwner(address payable _newOwner) public onlyOwner {\r\n        OWNER = _newOwner;\r\n    }\r\n\r\n}\r\n",
  "sourcePath": "D:/Code/JavaScript/Crypto/arbitrage/aggregation_polygon/contracts/MyV2FlashLoan.sol",
  "compiler": {
    "name": "solc",
    "version": "0.6.12+commit.27d51765.Emscripten.clang"
  },
  "schemaVersion": "3.4.1",
  "updatedAt": "2022-09-06T04:06:41.461Z",
  "devdoc": {
    "kind": "dev",
    "methods": {},
    "version": 1
  },
  "userdoc": {
    "kind": "user",
    "methods": {
      "executeOperation(address[],uint256[],uint256[],address,bytes)": {
        "notice": "This function is called after your contract has received the flash loaned amount"
      }
    },
    "notice": "!!! Never keep funds permanently on your FlashLoanReceiverBase contract as they could be  exposed to a 'griefing' attack, where the stored funds are used by an attacker. !!!",
    "version": 1
  }
}